:020000040800F2
:10000000D00E002009230008112300081323000844
:10001000152300081723000819230008000000001A
:100020000000000000000000000000001B2300088A
:100030001D230008000000001F2300081D08000801
:100040002323000823230008232300082323000878
:100050002323000823230008F708000823230008AF
:100060002323000823230008232300082323000858
:100070002323000823230008232300082323000848
:100080002323000823230008232300082323000838
:100090002323000823230008232300082323000828
:1000A0002323000823230008232300082323000818
:1000B0002323000823230008232300082323000808
:1000C00023230008232300082323000823230008F8
:1000D000232300085B0800088B080008AD0800080F
:1000E00023230008232300082323000823230008D8
:1000F0002323000800F002F800F04DF80AA090E871
:10010000000C82448344AAF10107DA4501D100F0D2
:1001100042F8AFF2090EBAE80F0013F0010F18BF52
:10012000FB1A43F0010318478C540000AC54000044
:10013000103A24BF78C878C1FAD8520724BF30C813
:1001400030C144BF04680C607047000000230024E5
:1001500000250026103A28BF78C1FBD8520728BFD7
:1001600030C148BF0B607047662905F0358100201B
:1001700070471FB503F0C2FA04000020002104F00C
:1001800091FE401C60600020002104F075FEE060DC
:100190001FBD10B510BD03F0DDFB1146FFF7E9FFF1
:1001A00000F0B7F803F080FE03B4FFF7F2FF03BCE2
:1001B00004F0EEF870B504460D46042C00DB70BD6B
:1001C0004DB1012D0FD14A4830F81410494800684C
:1001D00001F006FB07E0464830F814104548006877
:1001E00001F000FB00BF00BF00BFE8E710B500242E
:1001F00000BF18E00A20404921F83400002001EB3C
:10020000C4014880601C40003B4901EBC401888068
:100210000020394901EBC401C88000212046FFF7C6
:10022000C9FF601CC4B2042CE4DB10BD1CB5012165
:100230003248006801F086FE01208DF804008DF838
:10024000050000208DF8060002208DF8070000242C
:1002500011E0274830F814000090694625480068EE
:1002600001F044FA224830F814102248006801F0E6
:10027000B7FA601CC4B2042CEBDB1CBD10B5FFF751
:10028000D5FFFFF7B3FF10BD10B5002400BF2BE072
:10029000194800EBC400C088401C174901EBC40199
:1002A000C880154800EBC400C088134901EBC401A5
:1002B0008988884204DC01212046FFF77BFF03E0A8
:1002C00000212046FFF776FF0B4800EBC400C088F2
:1002D000094931F83410884204DB0020064901EB5B
:1002E000C401C880601CC4B2022CD1DB10BD000068
:1002F0000800002000000020500000200400002022
:1003000010B500F091FD10BD10B5FFF7BDFF10BD99
:10031000704700F04CFB21E000F095FB1048007A9C
:100320000A2804DB00200E490872FFF7F1FF0C4891
:100330004089642804DB002009494881FFF7E4FF75
:1003400007488089B0F57A7F04DB00200449888162
:10035000FFF7D6FF00F094FB00F075FBDCE7000030
:100360007000002010B588B00446CB4801F07AFA3E
:100370000021C94801F03EFB002240F22551C64849
:1003800001F0EEFB0121880301F0EDFD012108469B
:1003900001F0D8FD07220921C04801F030FA0722F8
:1003A0000A21BE4801F02BFA4FF40070069002209B
:1003B0008DF81C0001208DF81D0000208DF81E0016
:1003C00001208DF81F0006A9B44801F08FF94FF401
:1003D0008060069006A9B14801F088F902940020D7
:1003E000ADF80C00ADF80E00ADF810000C20ADF823
:1003F00012000020ADF8140002A9A74801F075FA18
:100400004FF4E06001F0A0F825208DF804000120F1
:100410008DF8050000208DF8060001208DF80700FA
:1004200001A801F096F8012240F225519A4801F006
:1004300097FB0121984801F0DDFA08B010BD10B516
:10044000044600BF4021944801F0AFFB0028F9D0DA
:100450002146914801F0F9FA10BD70B5044602E05A
:100460002846FFF7ECFF14F8015B002DF8D170BDB2
:100470002DE9F04F87B006460F4615464FF0000BAA
:10048000202006900024002F05DA7F42002E02DA99
:1004900076424FF02D0BB14607F0FF0A002D02DA2D
:1004A0006D4230200690142D02DD07B0BDE8F08FBC
:1004B00000BFB9FBFAF00AFB109000F0FF08B8F19A
:1004C0000A0F03DB08F1070000F0FF0808F1300015
:1004D00000F0FF082046611CCCB201A901F80080A1
:1004E000B9FBFAF9B9F1000FE3D1BBF1000F05D068
:1004F0002046611CCCB201A901F800B005E02146FC
:10050000621CD4B201AA06985054AC42F7DB00BF7B
:10051000611EC9B20C4601AA505CFFF790FF002C87
:10052000F6D100BFC1E72DE9F04188B004460D4681
:10053000164633465AA2142103A8CDE9004502F01D
:100540002DFD0DF10C0802E0F8B2FFF778FF18F866
:10055000017B002FF8D108B0BDE8F0810FB42DE980
:10056000F84F0BA8009088E0252C03D0E0B2FFF7ED
:1005700066FF82E00A9810F8014B0A90002082463C
:10058000074606460546252C03D1E0B2FFF757FF84
:1005900073E0302C04D10A9810F8014B0A9001271F
:1005A0000AE0A4F1300005EB850100EB41000544B1
:1005B0000A9810F8014B0A90302C01DB392CF0DD41
:1005C00007B16D426C2C05D14FF0010A0A9810F862
:1005D000014B0A9004B957E0732C05D1009901C969
:1005E0000091FFF73AFF48E0632C07D1009911F81A
:1005F000042BD0B20091FFF722FF3EE0662C0ED113
:100600000098C01D20F007000090D0E90081009AFA
:100610000832009204224046FFF785FF2DE0752C3A
:1006200000D10A26642C01D16FF00906582C01D0A4
:10063000782C00D11026622C00D1022606B923E0C6
:10064000BAF1000F07D0009901C92A46009131463E
:10065000FFF70EFF10E0002E07DD009901C92A46C2
:1006600000913146FFF704FF06E0009901C92A46D0
:1006700000913146FFF7FCFE00BF0A9810F8011BFD
:100680000C1E0A907FF470AF00BF00200090BDE800
:10069000F80F5DF814FB0000003801400000024034
:1006A000252E2A660000000070B5044600F0CBF944
:1006B00004EB84004004050C01E0681E85B2002DA7
:1006C000FBD100F0C0F970BD10B504464C48046180
:1006D00001E000F0B8F94A4800690028F9D110BDDE
:1006E00010B54748416847A0FFF738FF10BD10B567
:1006F00003460A46194600200FE0545C302C09DB03
:10070000545C392C06DC00EB80046000545C303C07
:10071000204400E006E04C1CA1B2545C14B1B1F5D9
:10072000806FEADB00BF10BD2DE9F04106460D46A3
:10073000284602F0E6FC87B2002407E0285DB042BC
:1007400002D120B2BDE8F081601C84B2BC42F5DB6E
:100750004FF0FF30F6E72DE9F04705460F4690468B
:10076000994629464046FFF7DFFF0646701C2918C8
:100770004846FFF7D9FF8246701C10B10AF101000C
:1007800010B90020BDE8F087002405E03019401CB6
:10079000285C3855601C04B25445F7DB0120F1E7B2
:1007A00010B502460B460020002102E0545C2044B4
:1007B000491C9942FAD310BD30B502460B464FF69C
:1007C000FF70002112E0555C684000240AE000F050
:1007D000010525B140104AF20105684000E04010D3
:1007E000651CACB20829F2DB4D1CA9B29942EADBC8
:1007F00030BD10B504460849204604F0DDFC10BDAC
:10080000700000200D5875206C79206865742025D3
:1008100064206D73000000000000704210B53F4876
:10082000006920B13D480069401E3C4908613B48D1
:100830004068401C394948600846007A401C0872EC
:1008400008464089401C488108468089401C8881B0
:1008500000F04BF900F019FE10BD10B540F2255123
:100860002F4801F0B8F978B140F225512C4801F039
:10087000DCF92B4801F0EDF80446E0B200F0E8F8AE
:100880000121284800F0ACFF10BD10B540F2255101
:10089000254801F0A0F940B140F22551224801F06D
:1008A000C4F9214801F0D5F8044610BD10B540F256
:1008B00025511E4801F08FF958B140F225511B48CF
:1008C00001F0B3F9194801F0C4F80446E0B200F0B1
:1008D000C2FD10BD10B540F22551154801F07BF95D
:1008E00040B140F22551124801F09FF9104801F043
:1008F000B0F8044610BD10B5012001F066FE38B115
:10090000012001F073FE01210220FFF753FC03E0F8
:1009100000210220FFF74EFC10BD000070000020F7
:100920000038014000000240004400400048004000
:10093000004C004010B5002807DA0A07140E2B4AB5
:1009400000F00F031B1FD45403E00A07130E284ABC
:10095000135410BD0020274908724881888108611E
:10096000704710B5244800684FF47A71B0FBF1F479
:10097000B4F1807F01D3012011E024F07F40401EBC
:100980004FF0E02148610F214FF0FF30FFF7D2FF19
:1009900000204FF0E021886107200861002008B1A5
:1009A00000BFFEE70021481EFFF7C4FF10BD10B5D1
:1009B00000201049087000214FF0006000F0FEFD9B
:1009C000FFF7CFFF00F02EF84FF4E130FFF7CAFC3D
:1009D0000AA0FFF7C3FD00F03EF90EA0FFF7BEFD31
:1009E000FFF7B8FF01200349087010BD18ED00E0C3
:1009F00000E400E070000020300000200D4B686F24
:100A0000692074616F2068652074686F6E672E2E90
:100A10002E0000000D4B686F692074616F20786FA5
:100A20006E672E0010B545F2555001F08DFC032085
:100A300001F08DFC40F6FF7001F08CFC01F08DFCA4
:100A400001F090FC10BD10B501F087FC10BD000056
:100A500001462F48B0F80222401C8154421EB2F8D1
:100A60000222501CC21700EBD2525212A0EB4222BB
:100A7000274BA3F8022246201A4682F80402704748
:100A800010B52348007800B910BD00202049087037
:100A90000846B0F80212421C1EA0FFF75FFD2DA110
:100AA0001B48401C02F01BFB08B100F033FD2BA1DA
:100AB0001748401C02F013FB10B1012000F09CF914
:100AC00028A11348401C02F00AFB10B1002000F0DE
:100AD00093F900200E49A1F802024FF400710C486E
:100AE000401C02F02DFB00BFCEE7094890F804023D
:100AF00000280CDD064890F80402401E044981F8E5
:100B00000402084690F8040208B9012008707047F2
:100B1000C40000200D4E68616E2064756F63206410
:100B200075206C69657520747520636F6E6720444D
:100B3000656275672E204368696575206461692068
:100B400025642E204E6F692064756E673A202573E8
:100B50000000000044454255472C31004C50522CB7
:100B6000310000004C50522C3000000010B501F054
:100B700020F904461CB946A0FFF7F0FC08E0042C5D
:100B800003D14DA0FFF7EAFC02E055A0FFF7E6FC19
:100B900010BD10B5002059490875592001F08AF898
:100BA00040B157A0FFF7DAFC5448007D40F0010047
:100BB000524908755A2001F07DF840B157A0FFF75F
:100BC000CDFC4E48007D40F002004C4908755B208A
:100BD00001F070F840B158A0FFF7C0FC4748007D15
:100BE00040F00400454908755C2001F063F840B10D
:100BF00058A0FFF7B3FC4148007D40F008003F4992
:100C000008755D2001F056F840B159A0FFF7A6FC29
:100C10003A48007D40F01000384908755E2001F028
:100C200049F840B159A0FFF799FC3448007D40F0E5
:100C30002000324908755F2001F03CF840B15AA00D
:100C4000FFF78CFC2D48007D40F040002B490875D3
:100C500001F032FA10BD10B5FFF79BFFFFF786FFDA
:100C600010BD0446214657A0FFF778FC00BFBFF334
:100C70004F8F5F48006800F4E0605E490843001D44
:100C80005B490860BFF34F8F00BF00BFFEE7000065
:100C90000D434C4F434B3A204E67756F6E20636C8B
:100CA0006F636B20747520746861636820616E687F
:100CB000206E6F692E0000000D434C4F434B3A20CD
:100CC0004E67756F6E20636C6F636B207475207454
:100CD0006861636820616E68206E676F61692E00CD
:100CE0000D434C4F434B3A204E67756F6E20636C3B
:100CF0006F636B20747520504C4C2E0070000020E8
:100D00000D4E677579656E206E68616E2072657331
:100D1000657420646F204F424C2E00000D4E6775A5
:100D200079656E206E68616E2072657365742064EB
:100D30006F2050494E2E00000D4E677579656E206C
:100D40006E68616E20726573657420646F20504F09
:100D5000522E00000D4E677579656E206E68616ECB
:100D600020726573657420646F205346542E000012
:100D70000D4E677579656E206E68616E20726573C1
:100D8000657420646F20495744472E000D4E6775E7
:100D900079656E206E68616E20726573657420647B
:100DA0006F20575744472E000D4E677579656E20AA
:100DB0006E68616E20726573657420646F204C509C
:100DC00057522E000D53595354454D3A20546965DE
:100DD0006E2068616E682072657365742C206E6782
:100DE0007579656E206E68616E2025642E000000A6
:100DF0000CED00E00000FA0510B504465348006809
:100E000040F0805051490860002000F08BFFFFF750
:100E1000A8FD4FF4E130FFF7A5FA4DA0FFF79EFBC8
:100E2000204601F0E7FA10BD10B550480068401C9C
:100E30004E49086008460068052800D010BDFFF73D
:100E400002FE0120FFF7D8FF00BFF7E770B50446A8
:100E50000D4647A0FFF782FB0121002001F0E3FAD5
:100E600070BD10B5012001F062FD002000F05AFFB6
:100E7000FFF777FD4FF4E130FFF774FA41A0FFF779
:100E80006DFB0121084601F0CEFA10BD4549096805
:100E900021F00201434A11601146096821F0010165
:100EA00011604149096841F004013F4A116008B9E5
:100EB00030BF00E020BF3C49096821F004013A4AF4
:100EC0001160704710B501F0DEFA10BD00B585B0B5
:100ED0000121084601F047F80121084601F032F8E7
:100EE0000120039000208DF8100001208DF81100E2
:100EF00000208DF812008DF8130003A92B4800F094
:100F0000F5FB0021084601F0A8FB0120019000201C
:100F10008DF808000C208DF8090001208DF80A00DA
:100F200001A801F0ECFA06208DF8000000208DF8F1
:100F300001008DF8020001208DF80300684600F0E2
:100F400008FB012001F02AFB05B000BD2438024057
:100F50000D456E746572204C6F772D706F776572DA
:100F60002052756E206D6F64652E00001000002009
:100F70000D456E74657220536C656570206D6F64ED
:100F8000652E00000D456E746572204C6F772D70D4
:100F90006F77657220536C656570206D6F64652E88
:100FA000000000000070004010ED00E00000024072
:100FB0002DE9F0479AB0054629462C20FFF7B4FBEF
:100FC00084B2611C89B20C4608462946FFF78FFBA4
:100FD000804642F21070B8FBF0F09C49C87042F2B3
:100FE0001070B8FBF0F100FB11806421B0FBF1F050
:100FF000964908716420B8FBF0F100FB1180934919
:10100000487129192C20FFF78FFB204484B2601C03
:1010100080B20446285C412803D101208B498871A5
:1010200002E00020894988718848807928B988A021
:10103000FFF794FA1AB0BDE8F08729192C20FFF7C2
:1010400073FB204484B234210CA802F09BF82819C9
:101050002C231A460CA9FFF77EFB38B10CA803F02D
:101060008FFE064603F034FF78498860601C84B226
:1010700029192C20FFF758FB204484B2601C80B251
:101080000446285C4E2803D101207049087302E011
:1010900000206E49087329192C20FFF745FB2044D6
:1010A00084B234210CA802F06DF828192C231A46BA
:1010B0000CA9FFF750FB38B10CA803F061FE0646FF
:1010C00003F006FF61490861601C84B229192C20D5
:1010D000FFF72AFB204484B2601C80B20446285CDF
:1010E000452803D101205949087502E000205749DD
:1010F000087529192C20FFF717FB204484B23421EE
:101100000CA802F03FF828192C231A460CA9FFF767
:1011100022FB38B10CA803F033FE064603F0D8FEDC
:101120004A498861601C84B229192C20FFF7FCFA17
:10113000204484B234210CA802F024F828192C236E
:101140001A460CA9FFF707FB38B10CA803F018FEEC
:10115000064603F0BDFE3D49C861601C84B22919F2
:101160002C20FFF7E1FA204484B2611C89B20C46BE
:1011700008462946FFF7BBFA804642F21070B8FBDA
:10118000F0F03249887042F21070B8FBF0F100FBC9
:1011900011806421B0FBF1F02C4948706420B8FB49
:1011A000F0F100FB11802949087008464179007967
:1011B000264AD278254B1B78CDE90032CDE90201D1
:1011C000224843788278817925A0FFF7C7F91F4923
:1011D000C86903F0C5FF06460F461C49886903F03D
:1011E000BFFF81468A461949086903F0B9FFCDE976
:1011F0000A011649886803F0B3FFCDE9049ACDE9E6
:101200000667CDE90801DDE90A01CDE902010F48D1
:10121000007D00900D48017B1F48DDE90823FFF7A2
:101220009DF900BF06E710B59AB004461BA1204601
:1012300001F055FF40B10D23242201A92046FFF7FC
:101240008AFA01A8FFF7B4FE1AB010BDCC02002044
:101250000D4750533A20496E76616C69642E000048
:101260000D56616C69643A2025642E205554432044
:1012700054696D653A20253032642E253032642E53
:10128000253032642C20253032643A253032643ADD
:10129000253032642E2000006C550008244750523F
:1012A0004D4300001CB50121022000F04BFE01203F
:1012B0008DF8040003208DF8050000208DF806004D
:1012C00001208DF80700042000906946954800F041
:1012D0000DFA012000906946924800F007FA0020BC
:1012E0008DF804000220009069468E4800F0FEF957
:1012F00004218C4800F074FA6420FFF7E5F901211D
:10130000884800F06DFA1CBD10B588B004468648C8
:1013100000F0A8FA0021844800F06CFB002240F2A3
:101320002551814800F01CFC0121880400F02CFEAE
:101330000121022000F006FE07220A21794800F070
:101340005EFA07220B21774800F059FA4FF48060CB
:10135000069002208DF81C0003208DF81D0000204F
:101360008DF81E0001208DF81F0006A96D4800F0C1
:10137000BDF94FF40060069006A96A4800F0B6F97E
:1013800002940020ADF80C00ADF80E00ADF810008E
:101390000C20ADF812000020ADF8140002A962483C
:1013A00000F0A3FA4FF4E06000F0CEF827208DF8AB
:1013B000040001208DF805008DF806008DF8070067
:1013C00001A800F0C6F8012240F22551564800F06D
:1013D000C7FB0121544800F00DFB08B010BD10B54B
:1013E00004462046FFF790FFFFF75CFF10BD10B5E5
:1013F000044600BF40214C4800F0D7FB0028F9D03C
:101400002146494800F021FB10BD70B505460E4647
:10141000002404E0285DFFF7EAFF601C84B2B442B8
:10142000F8DB70BD70B50546284601F06AFE86B24D
:10143000002400BF0CE0285DFFF7D9FFFFF703FB96
:101440003A48007810B1285DFEF7F9FF601C84B2BD
:10145000B442F0DB70BD35494A884988491C334B9A
:101460005980191D88540022091F4B88091DCA5430
:10147000091F4988B1F5AF6F02DB00212B4A51806B
:1014800046212A4AA2F87C1570472848B0F87E0504
:10149000401C2649A1F87E050846B0F87C050028C6
:1014A0000BDD0846B0F87C05401EA1F87C05084617
:1014B000B0F87C0508B901204870704710B50020CD
:1014C0001A49487048804FF4AF611848001D01F078
:1014D00037FE10BD10B51548407800B910BD13484F
:1014E000007878B112A0FFF739F8002406E00F4920
:1014F000091D085DFEF7A3FF601C84B20B484088FD
:10150000A042F4DC0948001DFFF78DFEFFF7D6FF6F
:1015100000BFE3E705480078C0F101000349087007
:10152000704700000004024000480040F002002024
:101530000D4750533A204475206C696575206E68DC
:10154000616E3A200D00000032490143324A1160B9
:10155000704770B5002100230F22C4781CB32E4CB5
:10156000246804F4E064C4F5E064C4F30721C1F125
:101570000404E3B20A4144789C40E1B28478144008
:1015800021430C07210E254C05786155047804F0A1
:101590001F050124AC4005786D11AD0005F1E02573
:1015A000C5F8004109E0047804F01F050124AC40AF
:1015B0001B4D0678761145F8264070BD194A0A4041
:1015C0000243154B1B1F1A60704739B1124A121D96
:1015D00012680243104B1B1D1A6006E00E4A121DD2
:1015E000126882430C4B1B1D1A607047042808D1F7
:1015F0004FF0E021096941F004014FF0E022116150
:1016000007E04FF0E021096921F004014FF0E022EA
:10161000116170470000FA050CED00E000E400E005
:1016200080E100E080FFFF1F10B50446854884423A
:1016300008D10121084600F0B8FC0021012000F08B
:10164000B4FC52E08048844208D10121022000F01D
:10165000ACFC0021022000F0A8FC46E07B4884425C
:1016600008D10121042000F0A0FC0021042000F09A
:101670009CFC3AE07648844208D10121082000F021
:1016800094FC0021082000F090FC2EE07148844278
:1016900008D10121102000F088FC0021102000F06A
:1016A00084FC22E06C48844208D10121402000F0F3
:1016B0007CFC0021402000F078FC16E06748844262
:1016C00008D10121802000F070FC0021802000F072
:1016D0006CFC0AE06248844207D10121202000F01E
:1016E00064FC0021202000F060FC10BDF0B50A462B
:1016F00000210023002400BF3DE0012505FA01F38D
:10170000156805EA03049C4234D105684F0003269E
:10171000BE40B543056015794E00B54006683543B7
:1017200005601579012D02D01579022D16D1856835
:101730004F000326BE40B543856055794E00B54045
:10174000866835438560858801268E40B54385804F
:10175000858896798E40B6B235438580C5684F003E
:101760000326BE40B543C560D5794E00B540C66876
:101770003543C560491C1029BFD3F0BD4FF6FF713A
:1017800001600021017141718171C171704708B51B
:101790004FF480320092009A0A430092009AC2618C
:1017A000C161009AC261C2690092C269009208BD1B
:1017B00002460020138A0B400BB1012000E00020FC
:1017C00070470146088A704702460020938A0B4002
:1017D0000BB1012000E0002070470146888A704765
:1017E00001837047418370470AB1018300E0418360
:1017F000704781827047828A4A4082827047F0B582
:10180000002300244D07ED0E02FA05F3CE1000F17F
:10181000200555F826504E07F70E0F26BE40B5435B
:10182000CF1000F1200646F82750CE1000F1200519
:1018300055F8265045EA0304CE1000F1200545F87E
:101840002640F0BD000002400004024000080240B3
:10185000000C02400010024000180240001C024030
:101860000014024010B50446F748844209D1012112
:10187000880300F0ABFB00214FF4804000F0A6FB92
:1018800032E0F248844209D10121480400F0AFFB64
:1018900000214FF4003000F0AAFB25E0EC48844220
:1018A00009D10121880400F0A2FB00214FF480201F
:1018B00000F09DFB18E0E748844209D10121C804EB
:1018C00000F095FB00214FF4002000F090FB0BE0AE
:1018D000E148844208D10121080500F088FB00217D
:1018E0004FF4801000F083FB10BD2DE9FF47054643
:1018F0000E460024A14600BFA046B08900B100BF3B
:101900002C8A24F44054F08804432C82AC8941F2A0
:101910000C608443B08831890843718908430443CB
:10192000AC81AC8A24F44074B0890443AC8268462C
:1019300000F064FAC448854202D1DDF80C9001E061
:10194000DDF80890A88900F4004040B109EBC90017
:1019500000EB091031684900B0FBF1F707E009EB33
:10196000C90000EB091031688900B0FBF1F7642071
:10197000B7FBF0F004012009642101FB1078A8896D
:1019800000F4004040B1322000EBC800B0FBF1F0A1
:1019900000F00700044308E0322000EB0810642147
:1019A000B0FBF1F000F00F0004432C81BDE8FF878D
:1019B0004FF41651016000218180C18001810C210A
:1019C000418100218181704710B502460020108AB4
:1019D00020F470600B884C8823438C882343CC8888
:1019E00023431843108210BD002101804180818073
:1019F000C180704721B1828942F40052828104E0A3
:101A000082894DF6FF731A4082817047028B02F47F
:101A10007F420283028B0A430283704721B182898D
:101A200042F40042828103E08289C2F30E02828185
:101A3000704721B1828A42F40062828204E0828A85
:101A40004FF2FF731A4082827047C1F3080282800E
:101A5000704701468888C0F308007047028A4FF635
:101A6000F0731A400282028A0A430282704721B14F
:101A7000828942F00202828104E082894FF6FD737E
:101A80001A408281704782894FF2FF731A40828127
:101A900082890A4382817047028A4FF6DF731A40B7
:101AA0000282028A0A430282704721B1028A42F40A
:101AB0008042028204E0028A4BF6FF731A400282DF
:101AC0007047818941F001018181704721B1828A8B
:101AD00042F00802828204E0828A4FF6F7731A40CD
:101AE00082827047028BD2B20283028B42EA0122C9
:101AF0000283704721B1828A42F02002828204E090
:101B0000828A4FF6DF731A408282704721B1828A3F
:101B100042F01002828204E0828A4FF6EF731A408C
:101B200082827047828A4FF6FB731A408282828AD1
:101B30000A438282704721B1828A42F00202828285
:101B400004E0828A4FF6FD731A40828270471AB110
:101B5000838A0B43838202E0838A8B4383827047AC
:101B6000F0B50346002400260025002040F66A1741
:101B7000B94200D100BF1846C1F3421401F01F065C
:101B8000012707FA06F5012C01D10C3004E0022CE4
:101B900001D1103000E014301AB107682F430760FC
:101BA00002E00768AF430760F0BD02460020B1F5D0
:101BB000007F00D100BF13880B400BB1012000E073
:101BC0000020704701F40072B2F5007F00D100BF21
:101BD000CA430280704770B50246002400230025E6
:101BE000002040F66A16B14200D100BFC1F3421591
:101BF00001F01F03012606FA03F3012D02D1968995
:101C0000334006E0022D02D1168A334001E0968A65
:101C100033400C12012606FA04F41688344013B13E
:101C20000CB1012000E0002070BD10B5002200239F
:101C300040F66A14A14200D100BF0A120124944068
:101C4000A3B2DC43048010BD0038014000440040D2
:101C500000480040004C004000500040F948006837
:101C600040F48070F7490860F64808300068F6498B
:101C70000840F44908310860F2480068F349084018
:101C8000F04908600846006820F480200860ED48AC
:101C90000830006820F47D00EA490831086000201F
:101CA000091D086070470021E64A921C1170114618
:101CB0000870704710B501460022002300204A1129
:101CC000012A02D1DF4C236802E0DE4C3434236861
:101CD00001F01F02012494401C400CB1012000E0DF
:101CE000002010BD38B5002000900024002500BF62
:101CF0003120FFF7DFFF05460098401C0090009858
:101D0000B0F5A06F01D0002DF2D03120FFF7D2FF47
:101D100008B1012400E00024204638BDC949C91D8E
:101D20000870704701460020C64A121D106820F452
:101D30006040084310607047C5490862704701461B
:101D40000020C04A121D106820F4F85040EA01201B
:101D500010607047BE49086070470021B94A3532AB
:101D60001170114608707047BA490860704710B585
:101D700041EA02030343B34C0A34237010BDB44953
:101D800008667047B24908677047B2492C3108604D
:101D9000704740EA0102AB4B0B331A7070470146A3
:101DA0000020A84A0832106820F0030008431060A1
:101DB0007047A4480830006800F00C0070470146E6
:101DC0000020A04A0832106820F0F000084310609C
:101DD0007047014600209B4A0832106820F4E060FA
:101DE00008431060704701460020964A0832106888
:101DF00020F4605040EAC10010607047F0B5002147
:101E0000002200230026002400258E4F08373F685B
:101E100007F00C0131B1042912D0082913D00C2984
:101E200037D113E0874F3F1D3F68C7F342356F1C22
:101E30004FF0010C0CFA07FC4FEACC37076036E094
:101E4000854F076033E0854F076030E07D4F0837EE
:101E50003F6807F470127B4F08373F6807F4400370
:101E60007F4F07EB92473A78012707EB9353754F63
:101E700008373F6807F480362EB9774F5743B7FBD2
:101E8000F3F7076004E0754F5743B7FBF3F70760BC
:101E90000DE06C4F3F1D3F68C7F342356F1C4FF09C
:101EA000010C0CFA07FC4FEACC37076000BF00BFFB
:101EB000644F08373F6807F0F0010909694F7C5CFF
:101EC0000768E74047605F4F08373F6807F4E06105
:101ED000090A644F7C5C4768E7408760594F0837C0
:101EE0003F6807F46051C90A5E4F7C5C4768E74071
:101EF000C760F0BD002100F44032B2F5403F08D188
:101F0000504A116821F0C04100F0C04211434D4ACF
:101F100011604C4A3432126822F44032494B343357
:101F20001A601A46126800F440331A43454B3433A2
:101F30001A607047474958310860704745495C311D
:101F40000860704739B13F4A1C32126802433D4B6A
:101F50001C331A6006E03B4A1C3212688243394B3C
:101F60001C331A60704739B1364A20321268024376
:101F7000344B20331A6006E0324A20321268824322
:101F8000304B20331A60704739B12E4A2432126820
:101F900002432C4B24331A6006E02A4A243212688A
:101FA0008243284B24331A60704739B1254A1032D6
:101FB00012680243234B10331A6006E0214A1032A4
:101FC000126882431F4B10331A60704739B11D4AA3
:101FD0001432126802431B4B14331A6006E0194A8C
:101FE000143212688243174B14331A60704739B1A8
:101FF000144A183212680243124B18331A6006E072
:10200000104A1832126882430E4B18331A60704718
:1020100039B10C4A2832126802430A4B28331A603D
:1020200006E0084A283212688243064B28331A60B9
:102030007047C9B1034A2C3212680243014B2C335A
:102040001A6016E0003802400CC0FF88FEFFFEEE6A
:1020500000004742800647420024F40000127A0044
:10206000140000201D0000201F4A126882431E4BEE
:102070001A60704739B11C4A121D126802431A4B8C
:102080001B1D1A6006E0184A121D12688243164B87
:102090001B1D1A60704739B1134A1F3A1278024368
:1020A000114B1F3B1A7006E00F4A1F3A1278824309
:1020B0000D4B1F3B1A7070470B480830006840F00A
:1020C0008070094908310860704701460020064ABF
:1020D000203A12680A400AB1012000E0002070474F
:1020E00001491E39087070472C3802400CB5002099
:1020F000019000907948006840F00100774908603D
:1021000000BF7648006800F002000090009818B9FF
:102110000198B0F5A06FF4D17048006800F002009B
:1021200010B10120009001E00020009000980128EB
:1021300041D16B48006820F00100694908600846F9
:10214000006820F0020008600846006820F00400E3
:10215000086062482430006840F080505F492431B4
:102160000860C8145F49086000BF5E48406800F01E
:1021700010000028F9D159480830006840F080006C
:10218000564908310860084600680860084600683B
:1021900008600846006820F00300086008460068F0
:1021A00040F00100086000BF4C480830006800F0B3
:1021B0000C000428F8D10CBD10B54848006840F464
:1021C0008070464908604548083000684649084024
:1021D00042490831086041480068444908403F4985
:1021E00008600846006820F4802008603B480830FA
:1021F000006820F47D003949083108600020091D7D
:102200000860FFF773FF4FF000603949086010BDA8
:1022100070B5002200200021002400232F4D083536
:102220002D6805F00C0232B1042A10D0082A12D011
:102230000C2A39D113E0294D2D1D2D68C5F34233E9
:102240005D1C0126AE40F5032A4E356038E02A4D6C
:10225000284E356034E0294D264E356030E01F4D64
:1022600008352D6805F470101C4D08352D6805F4EF
:102270004001234D05EB90452878012505EB915150
:10228000164D08352D6805F4803434B91A4D454390
:10229000B5FBF1F5174E356005E0184D4543B5FB2C
:1022A000F1F5144E35600BE00C4D2D1D2D68C5F376
:1022B00042335D1C0126AE40F5030E4E356000BF73
:1022C00000BF064D08352D68C5F303150D4E725D30
:1022D000084D2D68D540074E356070BD003802406E
:1022E000003C0240007000400CC0FF88FEFFFEEE84
:1022F00008ED00E0300000200024F40000127A0015
:10230000340000203D00002009488047094800476C
:10231000FEE7FEE7FEE7FEE7FEE7FEE7FEE7FEE795
:10232000FEE7FEE704480549054A064B70470000F2
:10233000B9210008F5000008D0080020D00E0020C8
:10234000D00A0020D00A00200E49086070470D49CD
:10235000486070470B49886070474AF6AA200949CF
:10236000086070474CF6CC4006490860704701464B
:102370000020044AD2680A400AB1012000E000208F
:10238000704700000030004010B501210807FFF73A
:102390002EFE00214FF08050FFF729FE10BD4D4961
:1023A00008627047014600204B4A106820F0E000A8
:1023B00008431060704747490861704708B500221C
:1023C0000092444AA03202440092009A116008BD73
:1023D0004049886270473F49486270470146002083
:1023E0003D4A106820F4C050084320F00C023A4BDC
:1023F0001A60704758B13849096841F00101364AFE
:1024000011601146096841F4804111600AE03249C7
:10241000096821F48041304A11601146096821F0B1
:1024200001011160704710B5024600202A4B186860
:1024300020F0030010431860284B1B6823F00403AE
:10244000264C2360012901D130BF00E020BF10BD20
:1024500010B502460020204B186820F003001043FE
:1024600018601E4B1B6843F004031C4C23600129B9
:1024700001D130BF00E020BF184B1B6823F00403DC
:10248000164C236010BD1448006840F00400124947
:1024900008600846006840F0020008600F480068C5
:1024A00040F004000D49086000BF00BF30BF704716
:1024B00001460020084A52680A400AB1012000E0A3
:1024C000002070470449096841EA8001024A11600E
:1024D0007047000000000E420070004010ED00E068
:1024E000002044490860091D0860091D0860091D95
:1024F00008606FF07F403F49143108607047002149
:102500003C498279002A3AD00A46126803689A4305
:102510000B461A600A1D126803689A430B1D1A6065
:10252000027911440A6803681A430A60314A083282
:10253000126803689A432F4B08331A601A1D1268F9
:1025400003689A432B4B0C331A604279102A0ED140
:102550001A1F126803681A43264B08331A601A1DA3
:10256000126803681A43234B0C331A600DE02149AB
:10257000427911440A6803681A430A6005E0027947
:1025800011440A6803689A430A6070470021016099
:1025900001710C2141710021817170471549103181
:1025A00009680143134A1032116070470146002048
:1025B000104A143212680A400AB1012000E00020DB
:1025C00070470C4914310860704701460020002212
:1025D000084B1B6803EA0102064B14331B680B40CF
:1025E00013B10AB1012000E0002070470149143105
:1025F000086070470004014010B501210846FFF74C
:10260000E5FC00210120FFF7E1FC10BD0020B249EC
:102610000860091D0860091D0860091D0860091D82
:102620000860091D0860091D08607047AB49086013
:102630007047AA48006800F44070704730B1A7495D
:10264000496841F00101A54A516005E0A349496884
:1026500021F00101A14A5160704730B500228B077B
:102660001C0F0F2303FA04F29C4B08338C1053F811
:1026700024309343994C08348D1044F82530234678
:102680008C1053F824308C07240F00FA04F42343F1
:10269000924C08348D1044F8253030BD014600209E
:1026A0008D4A106820F4403008431060704702469D
:1026B0000020894B1868104302F48023B3F5802F63
:1026C00002D120F00F00084302F40023B3F5002FDD
:1026D00003D120F0F00040EA011002F48013B3F5BA
:1026E000801F03D120F4706040EA012002F400133F
:1026F000B3F5001F03D120F4704040EA0130764B5F
:102700001860704739B1744A121F12680243724B45
:102710001B1F1A6006E0704A121F126882436E4B3C
:102720001B1F1A60704739B16B4A121F126882432F
:10273000694B1B1F1A6006E0674A121F12680243AA
:10274000654B1B1F1A60704710B50022C20F20F0A6
:10275000004081B13AB1604B1B1D1B6803435E4CC6
:10276000241D236017E05C4B08331B6803435A4C5D
:10277000083423600FE03AB1574B1B1D1B6883439D
:10278000554C241D236006E0534B08331B688343DC
:10279000514C0834236010BD40B14F49091D0968F0
:1027A00041F000414C4A121D116007E04A49091DE1
:1027B000096821F00041484A121D1160704710B5A8
:1027C000012810D13AB1444B0C331B688B43424C67
:1027D0000C3423607FE0404B0C331B680B433E4CB2
:1027E0000C34236077E0022813D14AB13A4B0C3302
:1027F0001B68CC4303EA0443374C0C3423606AE083
:10280000354B0C331B6843EA0143334C0C342360D3
:1028100061E0032810D13AB12F4B10331B688B4372
:102820002D4C1034236056E02B4B10331B680B43A8
:10283000294C103423604EE0042813D14AB1264BB2
:1028400010331B68CC4303EA0443234C1034236049
:1028500041E0214B10331B6843EA01431E4C103406
:10286000236038E0052810D13AB11B4B14331B68A4
:102870008B43194C143423602DE0174B14331B6821
:102880000B43154C1434236025E0062813D14AB1BC
:10289000114B14331B68CC4303EA04430E4C14342D
:1028A000236018E00C4B14331B6843EA01430A4CC5
:1028B000143423600FE03AB1074B18331B688B4385
:1028C000054C1834236006E0034B18331B680B4398
:1028D000014C1834236010BD047C0040000001400E
:1028E00001460020F94A106820F0010008431060FA
:1028F000704730B1F549096841F00201F34A1160AF
:1029000005E0F249096821F00201F04A11607047C0
:1029100030B1EE49096841F00401EC4A116005E06C
:10292000EA49096821F00401E84A1160704730B1B2
:10293000E649096841F00801E44A116005E0E3490D
:10294000096821F00801E14A11607047DF48001D65
:10295000006800F0010028B1DD48DC490C31086056
:10296000DC480860704700B5D848001D006800F0DA
:10297000020038B1FFF7EAFFD748D44910310860A8
:10298000D648086000BDD148001D006840F0020034
:10299000CE49091D086070470420CC4918310968E8
:1029A00001F0010109B1012010E0C849183109689E
:1029B00001F4807109B1022008E0C44918310968A6
:1029C00001F4F05109B1032000E00420704708B57C
:1029D000024604200090FFF7DFFF009003E0FFF7BE
:1029E000DBFF0090521E9DF80000012801D1002A53
:1029F000F5D10AB9052000909DF8000008BD30B55A
:102A0000044604256803FFF7E2FF0546042D1FD1A5
:102A1000AE48001D006840F40070AC49091D086014
:102A20000846006840F00800086000202060680345
:102A3000FFF7CDFF0546A548001D006820F00800FF
:102A4000A249091D08600846006820F4007008606B
:102A5000284630BD70B504460D4604267003FFF7C6
:102A6000B6FF0646042E04D125604003FFF7AFFFF2
:102A70000646304670BD9548001D006840F00100D4
:102A80009249091D0860704740B19049091D0968C5
:102A900041F480718D4A121D116007E08B49091DB8
:102AA000096821F48071894A121D1160704730B5A0
:102AB000044604256803FFF78AFF0546042D01D16B
:102AC00000202070284630BD30B504460425680338
:102AD000FFF77DFF0546042D01D100202080284608
:102AE00030BD30B5044604256803FFF770FF054686
:102AF000042D01D100202060284630BD70B5044669
:102B00000D4604267003FFF762FF0646042E0CD123
:102B10006E48001D006820F480706C49091D086033
:102B200025707003FFF753FF0646304670BD70B541
:102B300004460D4604267003FFF749FF0646042E9F
:102B40000CD16248001D006820F480705F49091DA7
:102B5000086025807003FFF73AFF0646304670BDD7
:102B600070B504460D4604267003FFF730FF064695
:102B7000042E0CD15548001D006820F48070534984
:102B8000091D086025607003FFF721FF06463046E7
:102B900070BD70B504460D4604267003FFF717FF9D
:102BA0000646042E04D125704003FFF710FF0646A9
:102BB000304670BD70B504460D4604267003FFF71D
:102BC00006FF0646042E04D125804003FFF7FFFED2
:102BD0000646304670BD70B504460D4604267003A7
:102BE000FFF7F5FE0646042E04D125604003FFF7EB
:102BF000EEFE0646304670BD00B53448001D006844
:102C000000F0040038B1FFF7A1FE35482F49143118
:102C100008603448086000BD2C48001D006840F082
:102C200004002A49091D086070472848001D0068F3
:102C300040F480202549091D086070472DE9F047C0
:102C400004460F46002500264FF00408A946AA4670
:102C50004FF40040FFF7BBFE8046B8F1040F31D1BE
:102C6000AFB121488068204385B21F48C06840EA60
:102C7000144086B2E84345EA00491B48C0F8089072
:102C8000F04346EA004A1848C0F80CA015E0164880
:102C9000806880B220EA04051348C068E14300EA76
:102CA0001146E84345EA00490F48C0F80890F04350
:102CB00046EA004A0C48C0F80CA04FF40040FFF769
:102CC00086FE80464046BDE8F0870000003C02409A
:102CD000EFCDAB8905040302BFAE9D8C161514130E
:102CE000C8D9EAFB272625240000F81F2DE9F04764
:102CF00004460F46002500264FF00408A946AA46C0
:102D00004FF40040FFF763FE8046B8F1040F31D165
:102D1000AFB1A0480069204385B29E48406940EAAF
:102D2000144086B2E84345EA00499A48C0F810903A
:102D3000F04346EA004A9748C0F814A015E09548C9
:102D4000006980B220EA040592484069E14300EA44
:102D50001146E84345EA00498E48C0F81090F04318
:102D600046EA004A8B48C0F814A04FF40040FFF731
:102D70002EFE80464046BDE8F0872DE9F047044628
:102D80000F46002500264FF00408A946AA464FF436
:102D90000040FFF71CFE8046B8F1040F31D1AFB1FF
:102DA0007C488069204385B27A48C06940EA144073
:102DB00086B2E84345EA00497648C0F81890F043E7
:102DC00046EA004A7348C0F81CA015E071488069C3
:102DD00080B220EA04056F48C069E14300EA114669
:102DE000E84345EA00496B48C0F81890F04346EACA
:102DF000004A6848C0F81CA04FF40040FFF7E7FD08
:102E000080464046BDE8F087F0B50446042500261C
:102E100000276803FFF7DBFD0546E043C6B244EA3E
:102E20000647042D01D15B4807604FF40040FFF7CF
:102E3000CEFD05462846F0BD2DE9F04304460D467B
:102E4000164604274FF000084FF00009524800686A
:102E5000C0F3034944EA0500304340EA0900C04397
:102E60004FEA004844EA0500304340EA090040EADE
:102E700008087803FFF7ABFD0746042F02D1454849
:102E8000C0F804804FF40040FFF7A1FD0746384624
:102E9000BDE8F083F0B504460425002600273E482F
:102EA000006800F47000070C44EA0700C043060401
:102EB00044EA070006436803FFF789FD0546042D31
:102EC00001D1344846604FF40040FFF780FD0546CD
:102ED0002846F0BDF0B504460425002600272E48FC
:102EE0000068C0F3064744EA0700C043060444EA0A
:102EF000070006436803FFF76AFD0546042D01D16C
:102F0000244846604FF40040FFF761FD054628461F
:102F1000F0BD21480068C0F3075070471E48001DEF
:102F2000006870471C486430006870471A48683071
:102F300000687047002018490968C9B2AA2901D061
:102F4000012000E00020704713480068C0F30340F0
:102F5000704739B1104A183A126802430E4B183BB9
:102F60001A6006E00C4A183A126882430A4B183B72
:102F70001A60704701460020074A121F12680A4073
:102F80000AB1012000E0002070470349091F0860D2
:102F9000704700000000F81F1C3C02400FB41CB535
:102FA0000C0007AA009001D02044401E074B7B4430
:102FB00069460190069800F02EFB002C03D069466C
:102FC000002000F03BFB1CBC5DF814FB95060000E4
:102FD0002DE9F0474FF0000A89460446C0F820A0CA
:102FE0002046E1688847002876D0252806D0D4E915
:102FF00001219047206A401C2062F1E7E1682046E9
:1030000000258847C4F81CA006460027C4F818A06D
:103010002A2E09D0304601F0ACFE38B304EB870805
:10302000303EC8F8186019E059F8041B204604EB3C
:1030300087029161E1688847012F064618D1E0694F
:10304000002820DA25F020051DE0D8F8180000EB54
:10305000800006EB40003038C8F818002046E168D0
:103060008847064601F085FE0028EED1012F0AD0E0
:103070002E2E08D12046E16888477F1C0646022F85
:1030800045F02005C4DBA069002803DA404245F082
:103090000105A061E80701D025F01005B6B1A6F141
:1030A0004100192802D8203645F400654A463146C9
:1030B000204625604D46FDF757F858B1012806D047
:1030C000ED1D25F0070000F1080989E704E005F18E
:1030D000040985E730468AE7206ABDE8F08730B505
:1030E00005460B462A4613F8014B12F8010B08B1AE
:1030F000A042F8D01CB1002802D06D1CF1E7284690
:1031000030BD10B5431C02E010F8011B71B18107FE
:10311000FAD14FF0013202C88C1A8C4314EAC21162
:10312000F9D0C01A0A0603D0C01E10BDC01A10BDC7
:103130000A0401D0801E10BD0902FCD0401E10BD43
:103140004FF000020429C0F0128010F0030C00F0D0
:103150001B80CCF1040CBCF1020F18BF00F8012B4E
:10316000A8BF20F8022BA1EB0C0100F00DB85FEA1C
:10317000C17C24BF00F8012B00F8012B48BF00F8E8
:10318000012B70474FF0000200B513469446964657
:10319000203922BFA0E80C50A0E80C50B1F120016A
:1031A000BFF4F7AF090728BFA0E80C5048BF0CC018
:1031B0005DF804EB890028BF40F8042B08BF704776
:1031C00048BF20F8022B11F0804F18BF00F8012BE8
:1031D000704770477047704710B500F093FA006869
:1031E00010BD10B5044600F08DFA046010BD7047A4
:1031F0002DE9FF4F0C461E464FF0FF378BB0D2E94A
:103200000001DDF860800A908A46C1F30A5505B9CD
:103210003D46002108464FF00000BAF1000F00F4CF
:10322000400005DA00EB80004FF4400101EA500055
:103230004FEA9059B9F1010F00DDB9460A9850EAFA
:103240004A000ED044F61050A5F2FF3545432F1426
:10325000B8F1000F1ED07542291E1EDDC9F1000213
:103260001CE0B8F1010F4FF0000001D0302103E065
:10327000F24305E02154401CB042FBDB3046002203
:10328000002121540B99C1F80880C1E900200FB03A
:10329000BDE8F08FBD1B6D1CDEE74A4600DA6942CF
:1032A00006A800F0E1FA06AB93E8070003AB83E859
:1032B000070050460A9901F093F88DE80700A0F541
:1032C00000501F3800900398002D0ADD42F21F01C4
:1032D0004A460844002303A90390684601F03EFBD8
:1032E00009E0A0F500504A461F38002303A90390C7
:1032F000684601F05DFB8DE807000004000C03D078
:103300004FF0FF30410800E01046B8F1000F03D045
:103310000022009215461EE0751E05D400F0F6F955
:10332000303262556D1EF9D5B3460122084302D0F2
:1033300000227F1C04E02078302801D100227F1E6B
:10334000002A099784D01DE0112D07DA00F0DEF97C
:10335000303262556D1C50EA0102F5D1084302D0AB
:103360000098C8B10EE00021681E05E0235C625C95
:1033700063542254401E491C8142F7DBAB46A81B14
:10338000401E0990002004F80B000B98099AC0F821
:103390000880C0E9002B7AE711264FF0000857E7B4
:1033A0002DE9F04F88460446D21D22F0070191B066
:1033B000D1E90001CDE90A0101F046FC02460B9873
:1033C000C00F01D02D2007E02068810701D52B20F8
:1033D00002E0202101EAC000032A099001D0072A57
:1033E00005DB03464146204600F0DEF90BE120787C
:1033F000800601D5E06900E00620B8F1650F81463E
:1034000006D0B8F1660F18D0B8F1670F70D131E06F
:103410000020B9F1110F009001DB112301E009F147
:1034200001030AAA01A90CA8FFF7E2FEDDE90C706E
:10343000002609F10105834647E001204B46009034
:103440004FF000470AAA01A90CA8FFF7D1FEDDE959
:103450000DB00C995D46002610B909F101000D1858
:10346000B9EB050003D4C0F1FF3609F10105A5EB66
:1034700009002BE0B9F1010F01DA4FF0010900203A
:10348000B9F1110F0090484601DD112300E0034619
:103490000AAA01A90CA8FFF7ABFEDDE90C704D46A6
:1034A00000268346207800070AD4AB4500DA5D4643
:1034B00001A8012D04DD411911F8011C302907D0A4
:1034C0004F4502DA17F1040F04DA012082460FE0BB
:1034D0006D1EEEE7002F02DCED1B3E4403E0781C7E
:1034E000A84200DD7D1CB81B00F1010A4FF0004727
:1034F0002078000703D4AA4501DB4FF0FF3A0021F2
:10350000B7F1004F0DF143088DF8431024D002208D
:103510002B23002F01DA7F422D230A21021EA0F166
:10352000010000DC5FB197FBF1FC97FBF1F201FBBE
:103530001C7C17460CF1300C08F801CDEEE7A8F121
:10354000010003702188090501D5452100E06521AE
:10355000A0F1010800F8011C09980FA9A1EB0807C8
:10356000FF1D00B10120411901EBEA70A169384447
:10357000081A401EA0612078C00602D42046AFF38E
:103580000080099828B1D4E901219047206A401CA5
:1035900020622078C00622D52046AFF300801EE0CE
:1035A000002E04DBB34502DD01A8805D00E0302081
:1035B000D4E901219047206A401C2062761CAAF1C0
:1035C00001005FEA000A0AD100F098F8C0680168BB
:1035D000405CD4E901219047206A401C2062281EEB
:1035E000A5F10105DCDC07E0D4E9012118F8010BA5
:1035F0009047206A401C2062381EA7F10107F3DCC7
:103600002046AFF30080032011B041E601694A1C57
:1036100002610878704700B58FB0CDE90131002113
:10362000059105497944CDE9031011466846FFF735
:10363000CFFC0FB000BD0000E5FFFFFF0A6802F8F5
:10364000010B0A607047D1E900239A4202D2531C51
:103650000B601070704700000FB4002300B589B0F4
:103660000CA900910B99CB60214B7B440693214B15
:103670007B44079304236FF00042CDE901321E4AD8
:103680007A446B4608920246002001F007FF09B019
:103690005DF814FB70B506464FF0FF3015460C463A
:1036A000324686B00091CDE90101694600200490C0
:1036B00004A8FFF7D1FF02460498211825B108B1EC
:1036C000084600E020462860049800280DD0002A13
:1036D00002DD0098884208D03246081B69460094F3
:1036E000CDE9010404A8FFF7B7FF06B070BD0000E4
:1036F000BB010000D3010000130100000048704727
:1037000090080020004870477008002030B5B0F1E4
:103710000A024FEA900E71F100034EEA817EB0EB8F
:103720000E0061EB91014FEA101E4EEA017E10EB94
:103730000E0041EB11114FEA102E4EEA016E10EB14
:103740000E0041EB11214FEA104E4EEA014E10EBF4
:103750000E0041EB1141401841F100014FEAD00049
:1037600040EA41704FEAD10110EB80054FEA810435
:1037700044EA907444EB01046D1944EB0404521BB9
:10378000A3414FF0000348BF0A3200D530BD401CB2
:1037900041F1000130BD10B5044600F001F90068A8
:1037A000005D00F0010010BD2DE9F0411F46044608
:1037B00003260168072A01F4006004DB08B116A59E
:1037C00005E016A503E008B115A500E015A521F058
:1037D00010002060A069C01EA0610FB1401EA06152
:1037E0002046AFF300804FB1D4E90121384690471D
:1037F000206A401C2062C01C206206E0206AFAE7B2
:10380000D4E9012115F8010B9047761EF8D2204625
:10381000AFF30080BDE8F0814E414E006E616E0056
:10382000494E4600696E6600426842B1016811F86F
:10383000013B23B1521EC0E9001218467047012116
:10384000C160881E704742685AB1C368016843B9B5
:1038500083688B4205D0491E521CC0E9001200202B
:1038600070474FF0FF3070472DE9F047814616460C
:103870008AB0354878440DC88DE80D003248784448
:10388000801C03AC0DC884E80D0041F69B30084451
:10389000372190FBF1F290FBF1F5A5F1800501FBDA
:1038A00012041B3C02D56442012000E00020DFF836
:1038B00098A080460027FA44AAF1BE0A0EE0E0076D
:1038C0000AD03246684607EB470101230AEB810123
:1038D00001F06EF88DE8070064107F1C002CEED11B
:1038E000194F7F44AE3F19E0E80715D007EB0410ED
:1038F0000DF1180A90E80E008AE80E00C068F04248
:1039000001D1981908903246012306A903A801F0B5
:103910004FF803AB83E807006D10641C002DE3D162
:103920004FF0010332466946B8F1000F03A802D0F8
:1039300001F014F801E001F03BF8C9E90001C9F811
:1039400008200AB0BDE8F087DC1C00000048704782
:10395000700800207546FFF7F9FFAE46050069467E
:10396000534620F00700854618B020B5FEF7DAFC74
:10397000BDE820404FF000064FF000074FF0000870
:103980004FF0000B21F00701AC46ACE8C009ACE8F1
:10399000C009ACE8C009ACE8C0098D46704700001A
:1039A00010B5FFF7ABFE001D10BD00BFF9140000FD
:1039B0002DE9FF4F06468BB00878FF2806D0491C3A
:1039C0002D2805D000244FF0000908E000200CE06D
:1039D0000124F8E709EB8903491C00EB4309087847
:1039E000FF28F7D114B1C9F10000814610780025F5
:1039F0002C46AA4629462D2801D02B2804D1521C3A
:103A00002D2813D0002082468B461078FF280FD037
:103A10004FF0000C0A21521CA5FB017804FB018128
:103A200005FB0C11C5194BEB0104EEE70120EAE799
:103A3000002108464FF00000BAF1000F02D000EB61
:103A400080004008C0F38157012F01DD4FF0FF37A0
:103A50000E9955EA040009EB01080BD04FF002095A
:103A600018F5FA7F16DA4FEACA70002F706008DD89
:103A7000012007E04FEACA70C6E900B00FB0BDE808
:103A8000F08F00203060FFF73DFEC0F80090182155
:103A9000084616E0B8F5FA7F18DD002F02DAF7487D
:103AA000784401E0F6487844D0E90010C6E90010F7
:103AB00040EACA707060FFF725FEC0F8009014213C
:103AC00008460FB0BDE8F04F01F083BC0021084666
:103AD0004FF00000B8F10001099002DAC7F10002CE
:103AE00000E03A4601DAC8F1000106A8FFF7BCFE83
:103AF00006AB93E8070003AB83E8070044F23E00FF
:103B00005BEA04010090584604D144F21E012C46A1
:103B10005D460091210C0904014306D1009924045B
:103B200044EA15442D041039009104F07F4101430B
:103B300006D10099240244EA15642D020839009147
:103B400004F07041014306D10099240144EA157440
:103B50002D01091F009104F04041014306D1009955
:103B6000A40044EA9574AD00891E009104F0004160
:103B7000084304D100986D196441401E00904FF035
:103B800001033A466846B8F1000FCDE9014503A9A3
:103B900002DD00F022FF01E000F0F5FEBAF1000FB7
:103BA00004460D4601D084F00044002108464FF041
:103BB0000000099940F2FF77484010F00C0F07D140
:103BC00024F00040284303D0C4F30A50B84212D175
:103BD000FFF798FDC0F80090C4F30A50B8420AD12C
:103BE000A8487844D0E90010C6E9001004F000416C
:103BF0000843706042E7C6E900543FE72DE9FF4FF4
:103C00001F464FF0000A4FF0FF38454691B0D7E904
:103C10000146CDF83CA0FFF771FDC0680168405C2B
:103C20001090B96912986D1C8847396A8146884797
:103C30000028F6D1B9F1FF3F0AD0002E24F4D06459
:103C400011DDB9F12B0F08D0B9F12D0F0BD102E026
:103C5000404615B013E744F48064B96912986D1CAE
:103C60008847761E8146600504A901D52D2000E015
:103C70002B20002E01F1010B0DF130088DF8100002
:103C80003FDDB9F1690F08D0B9F1490F05D0B9F19D
:103C90006E0F02D0B9F14E0F1CD13B4601A8009522
:103CA00080E85002DDE912126FF0020001F0FAFB29
:103CB000C11CCED10EE0B96912986D1C88478146AF
:103CC0001398761E44F4007405600F98401C002E73
:103CD0000F9016DDB9F1300FEDD0B9F1780F02D0A9
:103CE000B9F1580F0DD10F9801280AD13B46CDE903
:103CF0000054DDE91212001F029601F0D1FBC11C35
:103D0000A7D1109989453ED144F0800406E013996B
:103D1000681CAAF1010A44F400740860B9696D1CBA
:103D20001298761E884730288146F0D02BE01099F3
:103D3000894505D1200603D4761E44F0800418E09E
:103D4000484601F016F808B3761E0DF123018B45A5
:103D500044F4007408D2A9F130000BF8010B2006DE
:103D600007D5AAF1010003E0200602D40AF1010000
:103D70008246A00502D51399681C0860B96912989B
:103D80006D1C88478146002ED1DC53E0002E51DDAA
:103D9000B9F1650F02D0B9F1450F4BD1A00549D556
:103DA000B9696D1C1298761E24F440748847002E61
:103DB00081460CDD2B2804D0B9F12D0F07D144F436
:103DC0008074B96912986D1C8847761E8146E0059B
:103DD00001D52D2100E02B2108F8011BCDF8008032
:103DE00021E0761E0DF13901884544F400740CD2AF
:103DF000A9F1300010F0FF0088F8000002D100990E
:103E0000884509D908F1010806E0E00501D51E48FA
:103E100001E042F20F708246B96912986D1C884722
:103E2000814613980560002E04DD484600F0A1FF8E
:103E30000028D6D1F96912988847FF2053468BF89D
:103E4000000088F8000000200A900B9004AA0CA93A
:103E50000AA8FFF7ADFDA00502D46FF00100F8E657
:103E600014F0240F12D0E0071CD13868DDE90A12E3
:103E7000031D3B600068C0E9001213E0381B00001E
:103E80002A1B0000EE190000F1D8FFFF0AA96846BE
:103E900000F0FEFEE00705D13868009A011D396088
:103EA000006802602846D4E610B50446AFF30080EF
:103EB0002046BDE81040FCF777B900004FF0013C08
:103EC00050F8042B51F8043B9A4221D1A2EB0C0389
:103ED000934313EACC1317D150F8042B51F8043B49
:103EE0009A4215D1A2EB0C03934313EACC130BD1E6
:103EF00050F8042B51F8043B9A4209D1A2EB0C0371
:103F0000934313EACC13DBD04FF00000704700BF9F
:103F1000D01A01BAB1FA81F101F0180122FA01F0C8
:103F2000CB40C1F12001DBB2C0B2C01A2CFA01F3C0
:103F3000D11A914311EAC311E6D170472DE9FF4F21
:103F40001F464FF03C0987B04FF00042DDE91410E6
:103F500001F10108DDF858A002EA4050039000206A
:103F600005908346054604460490B969461E0898A4
:103F70008847AAF1010A0290BAF1000F3BDD0298CE
:103F80002E2815D0102100F01CFA00282EDB4FF04F
:103F9000010B0599014317D0B9F1000F0BDB4A461D
:103FA000C11700F0FBF905430C43A9F1040905E032
:103FB000012004900BE008B145F0010501200590B7
:103FC000049820B9361D02E0049800B1361FB96983
:103FD000089808F101088847BBF1000FAAF1010A0F
:103FE0000290C9D00999C1F80080C5E702987028ED
:103FF00008D0502806D0F96908988847BBF1000F0F
:1040000014D04FE0002002900120BBF1000F04907B
:1040100009D0B969089808F101088847AAF101098F
:10402000B9F1000F07DCF969089888476FF00100C3
:104030000BB0BDE8F08F2B2804D02D280CD14FF009
:10404000FF300490B969089808F101088847A9F180
:104050000109B9F1000FE6DD411CE4D00A2100F0AE
:10406000B0F90028DFDB029908F1010801EB8101BA
:1040700000EB41000290B969089888470A2100F0D6
:10408000A0F9099AA9F10109B9F1000FC2F800805D
:1040900001DD0028E7DAF969089888470499029851
:1040A00000FB016655EA040004D004F04041090019
:1040B00002D006E0039898E0A40044EA9574AD00AD
:1040C000B61E04F00041080002D16D196441761E4D
:1040D000159810F0240F03D04FF00B095C4803E053
:1040E0004FF028096FF07D008246564507DAAAEBAB
:1040F00006018944B9F1410F01DD4FF0410901206A
:104100000021A9F1010200F049F9024628400B46BE
:104110002140084301D0012100E00021501E0291FE
:1041200043F1FF3128402140084301D0012000E045
:1041300000200299834651EA0B014FD00021084626
:104140004FF00000039900F4400039B100EB80000B
:104150004FF4400100EBD07001EA600080150128A7
:1041600002DD4FF0FF3000E013D0401C36D0029843
:1041700060B3BBF1000F0CD14A460120002100F0D2
:104180000DF928402140084301D0012000E0002023
:10419000E0B101204A46002100F000F90346401931
:1041A0000A4661412D1A8C4111D3B9F1400F09DD46
:1041B000159810F0240F02D0AAF1340603E0AAF1FA
:1041C000170600E0761C00254FF0004406E05B1E59
:1041D00042F1FF3220EA030521EA0204CAF101009C
:1041E000B04206DA1B490398084301900020009072
:1041F0000EE0039AC4F3D321E80A0A43164940EAC1
:1042000044500A433146CDE90002684600F0A6FD5D
:10421000159810F0240F0BD01598C00715D13868E9
:10422000DDE90012031D3B600068C0E900120CE0EC
:1042300002A8694600F02CFD1598C00705D1386822
:10424000029A011D3960006802604046F0E60000F5
:1042500002FCFFFF0000F07F0000F03F2DE9FF4F60
:1042600092461D4685B04FF00041DDE9124BDDE975
:1042700014727F1E01EA4B50414940F0FF4940EA69
:104280000108002122F020004928049102D04E2884
:1042900028D04CE03BA0012607C88DE80700A9699B
:1042A0000698641C88477F1E014606D41DF8060048
:1042B00018B121F0200181420BD0E96906988847A6
:1042C000032E34D0082E32D06FF0010009B0BDE8C3
:1042D000F08F761C032E01D0082EE0D1601CCAF8A6
:1042E0000000DCE7A9690698641C88477F1E2AD471
:1042F00020F02000412826D1A9690698641C88472F
:104300007F1E20D420F020004E281CD1A9690698D9
:10431000641C88477F1E48F4002849F48009CAF8C5
:10432000004001D4282806D0E969069888475FEA4A
:10433000CB7012D022E0A9690698641C88477F1EC2
:1043400001D4002803DAE96906988847BCE72928E0
:10435000F1D1641CCAF80040E9E71BF0240F07D034
:1043600028680499031D2B600068C0E9001805E067
:104370002868021D2A600068C0F800902046A5E762
:104380000000F07F494E46494E4954590000000054
:1043900001491820ABBEFEE726000200B2F120035F
:1043A0000AD5C2F1200301FA02F120FA03F300FA60
:1043B00002F041EA0301704700FA03F14FF00000F8
:1043C00070473A2800D2303820F02002412A01D329
:1043D000A2F13700884201D34FF0FF307047704799
:1043E0005FEA400C08BF91F0000F4FEA8C234FEAC0
:1043F000C12243EA51514FEA1C5018BF00F5F0406A
:104400004FEA300018BF41F000415FEA6C5C00F0F9
:104410002980BCF1FF3F08BF40F080407047130C7B
:1044200006BF12044FF0100C4FF0000C130E04BF27
:1044300012020CF1080C130F04BF12010CF1040C52
:10444000930F04BF92000CF1020CD30F04BF520073
:104450000CF1010C11464FF00002A0F11F00A0EB7F
:104460000C00704711F0004F08BF704731F0004159
:104470003FF4D5AF0B0C06BF09044FF0100C4FF002
:10448000000C0B0E04BF09020CF1080C0B0F04BF4B
:1044900009010CF1040C8B0F04BF89000CF1020C14
:1044A000CB0F04BF49000CF1010CCCF12003A0EBB1
:1044B0000C0022FA03F302FA0CF241EA030100F1C4
:1044C0000100704720F07F4C80EA030023F07F4713
:1044D000ACEB070303F57C5300F0004003F1FF034E
:1044E0002DE980494FEA154B09B44FEA144325EAF8
:1044F0000B4E24EA03480FF2042606EB1327490863
:104500003E785FEA320203FB0667C7F5000707FB48
:1045100006F64FEA54374FEAD64606F1020607FB85
:10452000066CCCF1005C4FEA1C472CEA074C07FBF9
:1045300006F40CFB06F504EB15464FEA961634BF5D
:1045400000204FF000404FEAD13706FB07FC4FEA4E
:104550001C4C0CFB0BF7D21B03FB0CF761EB0701A8
:104560000CFB0EF7B0EB074072EB17420CFB08F7A1
:1045700034BFA2EB0742B2EB074261EB17414FEAAF
:104580000C444FEA910706FB07FC4FEA1C4C0CFB5E
:104590000BF7B0EBC74072EB573203FB0CF734BF9D
:1045A000A2EBC742B2EBC74261EB57310CFB0EF7EF
:1045B000B0EBC70072EB57720CFB08F734BFA2EBED
:1045C000C702B2EBC70261EB5771039F4FEA8161EB
:1045D00041EA921104EBCC044FEAD1374FEA8262F0
:1045E00006FB07FC42EA90124FEA80604FEA1C4C3F
:1045F0000CFB0BF7D21B03FB0CF761EB07010CFB69
:104600000EF7B0EB074072EB17420CFB08F734BF14
:10461000A2EB0742B2EB074261EB17414FEA8C5520
:104620004FEA910704EB9C2406FB07FC4FEA1C4C65
:104630000CFB0BF7B0EBC74072EB573203FB0CF7E8
:1046400034BFA2EBC742B2EBC74261EB57310CFB60
:104650000EF7B0EBC70072EB57720CFB08F734BFD4
:10466000A2EBC702B2EBC70261EB577115EB4C2509
:104670004FEA816141EA92114FEA82624FEAD137F3
:1046800042EA901206FB07FC44F100044FEA806006
:104690004FEA1C4C0CFB0BF7D21B03FB0CF761EB36
:1046A00007010CFB0EF7B0EB074072EB17420CFB57
:1046B00008F734BFA2EB0742B2EB074261EB1741A8
:1046C00015EB1C154FEA813141EA92414FEA8232E3
:1046D00042EA90424FEA80304FEA0C7644F10004FF
:1046E00048EA03434EEA0B484FF0000EB2EB080CC9
:1046F00071EB030724BF624639464EEB0E0E4FF0B6
:10470000000B0018524149414BEB0B0BB2EB080C6C
:1047100071EB03077BF1000B24BF624639464EEB79
:104720000E0E4FF0000B0018524149414BEB0B0BA2
:10473000B2EB080C71EB03077BF1000B24BF624660
:1047400039464EEB0E0E51EA020718BF46F001063D
:1047500016EB0E7655F1000254F1000103D5BDE8C9
:104760008901BDE80088BDE88901BDE80048B619A7
:10477000524141EB0101A3F10103704780807F7E2C
:104780007D7C7B7A797877767675747372717170C7
:104790006F6E6E6D6C6C6B6A6A6968686766666579
:1047A0006464636362616160605F5F5E5E5D5D5C07
:1047B0005C5B5B5A5A595958585757565655555578
:1047C0005454535352525251515050504F4F4F4ED8
:1047D0004E4D4D4D4C4C4C4B4B4B4A4A4A49494926
:1047E0004848484747474746464645454544444468
:1047F00044434343434242424241414146EA064622
:10480000A3F570534FEA164646EA42564FEAD222C3
:1048100042EA415210B54FEAD121A3F1010300F061
:104820002FF820F0004000F1020C00F0004701EBEF
:1048300000501146BCF5006F40EA070000D210BDE1
:10484000BAF1000F0AD01CB503B44FF004004FF0CA
:1048500004014FF000000FBCBDE810404FF0000114
:10486000BBF1010FB9BF04484FF0FF3103480021ED
:1048700040EA070010BD00BFFFFFEF7F0000F07FA0
:10488000002B9C4630D477002BD01CB54FEA37075D
:1048900003B44FF010004FF01001BAF1000F06D032
:1048A000BCF1000FDCBF40F0080040F008014FF001
:1048B00000000FBCBDE810400BF1010BBBF1010F74
:1048C00008BF5FEA170722BF12F1010211F10101CF
:1048D0004FF0004143F1000300F0004043EA0000C4
:1048E0007047F9D35708D0E746EA064613F1400F60
:1048F0004FEA16461FDD13F1200FDFBF16430A46AD
:10490000002120335B42BED0C3F1200746EA0646B1
:1049100002FA07F74FEA164646EA0706C3F12007F0
:1049200022FA03F201FA07F721FA03F14FF000032C
:1049300042EA0702A7E746EA020646EA06464FEAC7
:10494000164646EA0106BCBF46EA0646360C4FF05C
:1049500000034FF000024FF0000194E72DE9804C76
:104960009A46934670B491E8380007C831EA400C83
:1049700048BF34EA430C03D5FFF7A4FDFFF780FFDF
:10498000F0BCBDE8008C2DE9804C9A46934670B48B
:1049900091E8380007C831EA400C48BF34EA430CBC
:1049A00003D5FFF78FFDFFF729FFF0BCBDE8008CB2
:1049B0002DE9804C9A46934670B491E8380007C8B8
:1049C00010F0804F08BF13F0804F03D100F01AF8A9
:1049D000FFF756FFF0BCBDE8008C2DE9804C9A46ED
:1049E000934670B491E8380007C810F0804F08BFB4
:1049F00013F0804F03D100F005F8FFF7FFFEF0BC85
:104A0000BDE8008C20F07F4780EA030023F07F4C54
:104A100007EB0C03A3F57C5300F00040A3F1FE0369
:104A200092F0000F00F0B38095F0000F00F0778057
:104A30002DE901494FEA11404FEA144621EA0048A6
:104A400000FB06FC24EA064708FB06F607FB08F80D
:104A500000FB07F718EB06484CEB164C4FEA124BDD
:104A600018EB07484FEA15464CEB174022EA0B4E6D
:104A70000BFB06FC25EA06470EFB06F607FB0EFEBF
:104A80000BFB07F71EEB064E4CEB164C4FF00006E7
:104A90001EEB074E4CEB174B18EB0B0840F10000D8
:104AA00018EB0E0B58EB000840F100008F1A4FF086
:104AB00000013CBFC943661B14BFB5EB040C0021C9
:104AC0003CBFC943F61B4FEA17444EEA8E0E27EA55
:104AD00004454FEA1C4704FB07622CEA074C05FB20
:104AE00007F70CFB05F604FB0CFC16EB074642EB44
:104AF000174216EB0C4642EB1C421BEB060658EB2A
:104B00000202414146EA9E0601D5BDE80189B61977
:104B1000524141EB0101A3F10103BDE801894FEAD4
:104B200014454FEA114724EA054621EA074C05FBE4
:104B300007F406FB07F70CFB06F105FB0CFC11EB79
:104B4000074144EB17444FEA124711EB0C4144EB89
:104B50001C4422EA074C05FB07F206FB07F70CFB97
:104B600006F605FB0CFC16EB074642EB174216EB6C
:104B70000C4642EB1C456A1854F1000148BF7047CF
:104B8000B619524141EB0101A3F10103704795F0C1
:104B9000000F37D04FEA11424FEA144721EA02468C
:104BA00024EA074C02FB07F106FB07F70CFB06F4AF
:104BB00002FB0CFC14EB074441EB17414FEA15478D
:104BC00014EB0C4441EB1C4125EA074C02FB07F5B2
:104BD00006FB07F70CFB06F602FB0CFC16EB074680
:104BE00045EB174516EB0C4645EB1C42121951F1EB
:104BF000000148BF7047B619524141EB0101A3F1D2
:104C0000010370474FEA14454FEA114724EA05466D
:104C100021EA074C05FB07F106FB07F70CFB06F240
:104C20004FF0000605FB0CFC12EB074241EB17416D
:104C300012EB0C4251EB1C4148BF7047921841EBFC
:104C40000101A3F101037047490050EAC12018BFD8
:104C500004204A0D18BF40F0010040F2FF72B2EB91
:104C6000515F08BF40F00200012808BF05207047CF
:104C700040F2013200204FF0E04100F0E1BB0000C3
:104C8000024A0020110700F0DBBB000001FDFFFF1E
:104C900010B50446D1E9000100F002F8206010BD13
:104CA000F8B504460D466A4600F080F800987E305C
:104CB000009000281EDC002213462046294600F002
:104CC0004DF917D0002140F608004FF000000646CD
:104CD0002046294600F0FCF8044640F6080006EAA3
:104CE00000014FF0000034F0004004BF0220FEF746
:104CF00078FA29E00098FF2828DB002108464FF0C9
:104D0000000000F44006002213462046294600F029
:104D1000F1F98CBF002501250220FEF762FA4FF061
:104D2000FF4446B1002D0CBF4FF400004FF480004B
:104D3000B04218BF084C042108464FF00000002D77
:104D400004BF84F00040F8BD2046F8BD2046294647
:104D5000BDE8F84000F0BCB8FFFF7F7F10B5044607
:104D60000A46D4E90003194600F04CF8C4E90001F2
:104D700010BD30380A2801D201207047002070474A
:104D800030B583B00446FEF727FA05460020CDE98A
:104D90000000024621466846FEF77CFC2846FEF7E6
:104DA00020FADDE9000103B030BD000010B5144663
:104DB00000222260114A21F000439342A8BF10BD97
:104DC00053EA000208BF10BDB3F5801FA8BF2268D8
:104DD00007DA362200F034FB6FF0350221F0004391
:104DE0002260DFF81CC06FF31E510CEB23531A44F2
:104DF00041F0FF5141F00051226010BD0000F07FF2
:104E000002FCFFFF2DE9F04106460C4640F2FF751B
:104E1000174635EA14502BD000221346304600F0D6
:104E20009DF825D03A463046214600F009FB06465B
:104E30000C4635EA145010D000221346304600F0DC
:104E40008DF815D10220FEF7CCF9FFF719FF0A46BD
:104E5000214662F31E01BDE8F0810220FEF7C1F990
:104E6000FFF706FF0A46214662F31E01BDE8F08106
:104E700030462146BDE8F08110B500290AD00878F7
:104E8000002807D005487844FFF718F8002801D01B
:104E9000002010BD0248784410BD00005E070000ED
:104EA0005607000010B500290AD00878002807D05E
:104EB00005487844FFF702F8002801D0002010BD13
:104EC0000248784410BD00004E070000460700006D
:104ED00021F00042A2F16052B2F5801F01F00043C0
:104EE00028BFD2F17F6C0BD95FEA001C43EAC202F3
:104EF00042EB507018BF704728BF20F00100704788
:104F0000B2F5801FBCBF184670474FEA410C1CF534
:104F1000001F02D2084600F057BA70B500F096F8AC
:104F200000000089FFF7F6BF4FF00040A0F58000B9
:104F30007047000002494FF0000000F04FBA00BF78
:104F40000000F87F491058BFC1F140415B1058BFC5
:104F5000C3F140438B42EFF30080704751EA030CEA
:104F600017D41CF5801F58BFBCF5801F00F10680C8
:104F7000994218BF704708BF9042704707D711F594
:104F8000801F58BF13F5801F19D49942704789427A
:104F900070471CF5801F08D5BCF5801FF7D58B42E4
:104FA00018BF704708BF824270474FF4001C1CEBCB
:104FB000410F38BF1CEB430F01D28B42704770B5D5
:104FC00000F044F8922449004FF000514FF0805314
:104FD000FFF7B8BF51EA030C17D41CF5801F58BF68
:104FE000BCF5801F00F10680994218BF704708BFCA
:104FF0009042704707D711F5801F58BF13F5801FE7
:1050000019D499427047894270471CF5801F08D512
:10501000BCF5801FF7D58B4218BF704708BF82428E
:1050200070474FF4001C1CEB410F38BF1CEB430FC3
:1050300001D28B42704770B500F008F89224490005
:105040004FF000514FF08053FFF77CBF0EF1020E7E
:105050002EF0030E5EF8046B364205D4012A43EBB2
:10506000030515F5001F12D8012841EB010C1CF5B2
:10507000001F0CD80ED14FEAD17C15F5001F0CEBA8
:105080004C0C0CF1020C08BF4CEBD37C04E04FF04D
:10509000080C01E04FEAD37C0CEB4C0526FA05F630
:1050A00006F00706B6F1040C06D20EEB860CBDE83E
:1050B00070404CF0010C6047DFE80CF0090B020275
:1050C0004FF000414FF00000A1F5002170BD1946DE
:1050D0001046012851EB010418BFD4F5001484BF19
:1050E000002001F0004170BD0808A0F500114FEA52
:1050F0003101704753EA010C17D41CF5801F58BFCB
:10510000BCF5801F00F106808B4218BF704708BFB6
:105110008242704707D713F5801F58BF11F5801FD3
:1051200019D48B4270479B4270471CF5801F08D5ED
:10513000BCF5801FF7D5994218BF704708BF904251
:1051400070474FF4001C1CEB430F38BF1CEB410FA2
:1051500001D2994270470FB40CBC03BCFFF76BBF80
:1051600043004FEAD30C4FEA3C0C43401FBF4007BB
:105170000CF1605113F0FE4F70471CF0006F03D12B
:1051800000200CF0004170470CF0004343EA5070DF
:1051900010B540EACC0000F0D1F800BF000000924A
:1051A0004FEA0001FFF7A0BF4FF000414FF00000B1
:1051B000A1F50021704700004FF47F0C1CEAD012CB
:1051C0001EBF1CEAD11392EA0C0F93EA0C0F00F0F9
:1051D000858090EA010F48BF42F4807240F4000CD1
:1051E00041F400002CF07F4120F07F4000B5814267
:1051F000A2EB03020FF2081CACEB504EC0F1000012
:105200009EF800E04FEA4E0E00FB0EFC38BF49004E
:105210004FEA2C1C02F5FA020CFB0EF34FEACE1EED
:105220004FEA112C4FEAC1210EEB635E42EB2242A2
:105230000EFB0CFC4FEA1C5300FB03114FEA112C30
:105240004FEA01310EFB0CFC4FEADC4C00FB0C1169
:10525000C14228BF09184CEB03335DF804EB10EB97
:10526000410143EBC250B2F57C0F38BF704729D5DE
:1052700012F0F00F1CBF00F1C04000F0004070477A
:10528000008182838485868788898B8C8D8E8F911F
:105290009293959697999A9C9D9FA0A2A3A5A7A843
:1052A000AAACAEB0B2B3B5B7B9BCBEC0C2C5C7C96F
:1052B000CCCED1D4D7D9DCDFE2E6E9ECF0F3F7FAD3
:1052C000FE0000004FEA400C0CF1807CBCF17E4FE8
:1052D00028BF7047B0F1C04000F076B890EA010FE7
:1052E0000CEAD11348BF42F48072624538BF63456F
:1052F00007D213F47F0F16D080EA010000F00040BF
:10530000704710B500F01AF8097EFC3E00F005B8B1
:1053100080EA010000F00040704780EA010000F0E0
:10532000004000F051B812F47F0F04BF02487047EC
:1053300080EA010000F048B80000C07F0EF1020EC4
:105340002EF0030E5EF8044B244204D44FEA4102CF
:10535000B2F17F4F11D84FEA4003B3F17F4F0CD821
:105360000ED14FEAD07CB2F17F4F0CEB4C0C0CF11C
:10537000020C08BF4CEBD17C04E04FF0080C01E0BC
:105380004FEAD17C0CEB4C0324FA03F404F007043D
:10539000B4F1040C06D20EEB840CBDE810404CF0C6
:1053A000010C6047DFE80CF0070802024FF00040F4
:1053B000A0F5800010BD0846420018BFD2F18072EF
:1053C00088BF00F0004010BDFF2141EAD050C00569
:1053D00070474FF000007047FDF7E2BF0CF00F037D
:1053E000092B08BF082000F05F800A2B0BD0082B88
:1053F00018BF704708BF1CF0400F0AD04FF00000E4
:105400004FF0000170471CF0400F18BF4FF00040F4
:1054100070471CF0100F08D020F0704300F07F425E
:1054200042EAD3014FEA4370704700F0604021F038
:105430007F4242EA000201F07F4040EA727070470A
:105440004FF0FF0C4CF4E06C1CEA11531CBF9CEABB
:10545000030C9445C2BFDA4201EB02517047002BA6
:105460000DD0BCF1000F0FD0002A01F00041A4BF05
:1054700041F0E04141F07F614FF00000704701F0E2
:1054800000414FF00000704750EA01334FF09B0C91
:1054900018BF4CF0806C7FF44DAD7047FEF7AEBB8B
:1054A000FEF74CBDFEF7DABE1CF4801F11D01CF4D1
:1054B000E02F03D06FEACC31490070474FF04050E5
:1054C000EFF3008222F0704242EA000282F3008889
:1054D00070474FF00000704702400000000000A03D
:1054E0000000000005400000000000C800000000AF
:1054F0000C4000000000409C00000000194000002B
:105500000020BCBE0000000034400000BFC91B8E5C
:1055100000000004B5400000504BCFD06607E2CF3A
:10552000010000006C4100003E8251AADFEEA7346A
:1055300001000000D9420000DCB5A0E23A301F971C
:10554000FFFFFFFFB4450000FD25A0C8E9A3C14F40
:10555000FFFFFFFFFF3F0000000000800000000091
:10556000FF3F000000000080000000004E6F7274DA
:10557000683A2025642E204C617469747564653A1C
:105580002025662E20456173743A2025642E204C18
:105590006F6E6769747564653A2025662E205370B6
:1055A0006565643A2025662E20434F473A202566DC
:1055B0002E000000105700080000002050000000DE
:1055C000300100086057000850000020800E0000E5
:1055D0004C010008000000000000F07FFFFFFFFF0B
:1055E000FFFFEF7F1C00000043000000F8FFFFFFFB
:1055F0000C0000000E0000000F0000002E00000054
:105600001001000043000000F8FFFFFF0040404091
:105610004040404040404141414141404040404085
:105620004040404040404040404040404005020231
:1056300002020202020202020202020202202020F0
:10564000202020202020200202020202020290904C
:10565000909090901010101010101010101010104A
:10566000101010101010101002020202020288889E
:1056700088888888080808080808080808080808AA
:105680000808080808080808020202024000000092
:10569000000000000000000000000000000000000A
:1056A00000000000000000000000000000000000FA
:1056B00000000000000000000000000000000000EA
:1056C00000000000000000000000000000000000DA
:1056D00000000000000000000000000000000000CA
:1056E00000000000000000000000000000000000BA
:1056F00000000000000000000000000000000000AA
:105700000000000000000000000000000000000099
:105710000000024001000000800040002000000066
:1057200000000000030406080C10182030000000E0
:105730000001020304010203040607080900000037
:1057400000127A00030406080C1018203000000034
:105750000000000000010203040607080900000021
:04000005080000F5FA
:00000001FF
